:100000000C942A000C9447000C9447000C94470071
:100010000C9447000C9447000C9447000C94470044
:100020000C9447000C9447000C9447000C94470034
:100030000C9447000C9447000C9447000C94470024
:100040000C9447000C9447000C9447000C94470014
:100050000C94470011241FBECFE5D8E0DEBFCDBF12
:1000600011E0A0E6B0E0EEE7FEE002C005900D92E0
:10007000AA32B107D9F721E0AAE2B1E001C01D928E
:10008000AA33B207E1F70E9429030C943D070C94B0
:1000900000000E94AC020E94110260E082E40E9413
:1000A0001A0361E082E40E941A0362E082E40E9483
:1000B000F30163E082E40E941A0308950F931F93F3
:1000C000CF93DF938C01D62FC0E01BC00E94390272
:1000D000809361008F3FA9F0F801EC0FF11D808340
:1000E000809161000E94C40284EF91E00E94240587
:1000F00066E06C0F82E00E94FF028AE20E94C40266
:10010000CF5FCD1718F3DF91CF911F910F91089515
:1001100081E00E9496028FE00E94960286E790E0BE
:100120000E94DA0210922A0125C00E9439028093AF
:1001300061008F3FF9F00E94C40284EF91E00E94B9
:10014000240560912A01665F81E00E94FF028AE235
:100150000E94C40284EF91E00E94240580912A014C
:10016000609161008F5D0E94060280912A018F5F7D
:1001700080932A0180912A018430B8F260E080E205
:100180000E9406020895CF93DF93EC0181E20E9462
:10019000FE019881891314C082E20E94FE019981B8
:1001A000891310C083E20E94FE019A8189130CC05A
:1001B00084E20E94FE019B81891308C081E007C090
:1001C00080E005C080E003C080E001C080E0DF91F6
:1001D000CF91089581E00E94960280E890E00E940D
:1001E000DA0261E082E40E941E0360E082E40E9481
:1001F000220362E082E40E94FB0161E082E40E944B
:10020000260360E082E40E94260384EF91E00E94CE
:100210002405EFCF81E00E9496028CE00E949602B6
:1002200080E990E00E94DA0263E082E40E941E030B
:1002300062E082E40E94FB018AEF90E00E942405C4
:1002400062E082E40E94FB018AEF90E00E942405B4
:1002500062E082E40E94F701089580E20E94FE01BC
:100260008F3F61F581E00E9496028CE00E94960229
:100270008EE990E00E94DA0280EC0E94960287EA02
:1002800090E00E94DA0281E090E00E94BA0488E1E6
:100290000E9496028CE291E00E94240588E10E946F
:1002A00096028CE291E00E94240588E10E94960269
:1002B00081E090E00E94BA040E9488008FE00E94D2
:1002C000960281E00E94960289EB90E00E94DA0299
:1002D00080EC0E94960282EC90E00E94DA0264E0D8
:1002E0008BE291E00E945E008BE291E00E94C300ED
:1002F000813009F055C00E9496028CE00E9496025F
:1003000088EC90E00E94DA0281E090E00E94BA045A
:1003100081E00E9496028CE00E94960289ED90E0B6
:100320000E94DA0280EC0E94960286EE90E00E9423
:10033000DA0281E090E00E94BA0488E10E9496020D
:100340008CE291E00E94240588E10E9496028CE2F2
:1003500091E00E94240588E10E9496020E943902E1
:10036000809361008F3FD1F3813319F0823321F004
:1003700008950E940A0108950E94880081E00E9469
:1003800096028CE00E94960289EF90E00E94DA02C9
:1003900080EC0E94960282E091E00E94DA020895C9
:1003A00081E00E9496028CE00E9496028CE091E02F
:1003B0000E94DA0280EC0E94960280916000805DCB
:1003C0000E94C4028CE191E00E94DA0281E090E098
:1003D0000E94BA0480916000815080936000811176
:1003E0006DCF0E94EA0041E00E943003089540E092
:1003F0000E94A40308950E9455040895E199FECF38
:100400008EBB8CB381608CBB8DB30895E199FECF18
:100410008EBB6DBB8CB384608CBB8CB382608CBB99
:10042000089541E060E081E40E94300341E061E032
:1004300081E40E94300341E062E081E40E943003E5
:1004400040E063E081E40E94300340E064E081E446
:100450000E94300340E065E081E40E94300340E008
:1004600066E081E40E94300361E081E40E948C0434
:1004700008958FEF8093750010922F014AC040E0DD
:1004800081E40E94A4031092310134C0F0E0EE59DF
:10049000FF4F40E351E0608181E40E9418048091A5
:1004A0003001811122C00BC0E0913101F0E0EE5922
:1004B000FF4F40E351E0608181E40E941804809185
:1004C0003001882389F38091310190E020912F0140
:1004D000FC01EE0FFF1FE80FF91FE759FF4FE20F76
:1004E000F11D8081809375000895809131018F5FA7
:1004F00080933101E0913101E43040F241E06091BC
:100500002F0181E40E94A40380912F018F5F8093CB
:100510002F0160912F01E62FF0E0EA59FF4F808113
:10052000833008F4ACCF80917500089582BB85B309
:100530008D7F85BB85B38E7F85BB85B3846085BB8E
:1005400081E090E00E94240585B38B7F85BB83E02A
:1005500090E00E942405089587E084BB8FEF81BB63
:100560008EE190E00E9424058FE30E9496028FE0C6
:100570000E94960281E00E94960280E80E94960204
:1005800083E00E949602089582BB85B38D7F85BB70
:1005900085B3816085BB85B3846085BB81E090E0D5
:1005A0000E94240585B38B7F85BB83E090E00E9489
:1005B000240508950F931F93CF93DF938C01C0E020
:1005C000D0E012C082BB85B38D7F85BB85B38160CF
:1005D00085BB85B3846085BB81E090E00E942405E3
:1005E00085B38B7F85BB2196F801EC0FFD1F8081C1
:1005F0008111E8CFDF91CF911F910F9108959FEF67
:10060000980F923070F4613170F4662371F081308C
:1006100019F42FE7260F0AC0823041F42FEB260F82
:1006200005C020E803C020E801C020E8822F0E9416
:100630009602089541E00E943003089541E00E942F
:10064000A403089540E00E94A40308950E94550465
:1006500008950E9449000E942D0180E090E00895D5
:100660004423B9F18234A1F018F4813431F00895B3
:100670008334C9F0843411F108952AB381E090E005
:1006800002C0880F991F6A95E2F7822B8ABB0895F2
:1006900027B381E090E002C0880F991F6A95E2F7C6
:1006A000822B87BB089524B381E090E002C0880FBD
:1006B000991F6A95E2F7822B84BB089521B381E0EC
:1006C00090E002C0880F991F6A95E2F7822B81BBE8
:1006D00008958234A9F018F4813431F008958334F8
:1006E000D9F0843429F108952AB381E090E002C062
:1006F000880F991F6A95E2F7809582238ABB089537
:1007000027B381E090E002C0880F991F6A95E2F755
:100710008095822387BB089524B381E090E002C0D6
:10072000880F991F6A95E2F78095822384BB08950C
:1007300021B381E090E002C0880F991F6A95E2F72B
:100740008095822381BB08954423B9F18234A1F0BE
:1007500018F4813431F008958334C9F0843411F1F0
:1007600008952BB381E090E002C0880F991F6A952D
:10077000E2F7822B8BBB089528B381E090E002C0A2
:10078000880F991F6A95E2F7822B88BB089525B3DD
:1007900081E090E002C0880F991F6A95E2F7822BF2
:1007A00085BB089522B381E090E002C0880F991FB5
:1007B0006A95E2F7822B82BB08958234A9F018F47F
:1007C000813431F008958334D9F0843429F10895C7
:1007D0002BB381E090E002C0880F991F6A95E2F781
:1007E000809582238BBB089528B381E090E002C0FE
:1007F000880F991F6A95E2F78095822388BB089538
:1008000025B381E090E002C0880F991F6A95E2F756
:100810008095822385BB089522B381E090E002C0D9
:10082000880F991F6A95E2F78095822382BB08950D
:100830008234A9F018F4813431F035C08334D9F012
:10084000843429F130C089B390E002C09595879532
:100850006A95E2F78170FA01808380E0089586B39B
:1008600090E002C0959587956A95E2F78170FA014C
:10087000808380E0089583B390E002C095958795CA
:100880006A95E2F78170FA01808380E0089580B371
:1008900090E002C0959587956A95E2F78170FA011C
:1008A000808380E0089581E008958234A1F018F4F7
:1008B000813431F008958334C9F0843411F10895FE
:1008C0002BB381E090E002C0880F991F6A95E2F790
:1008D00082278BBB089528B381E090E002C0880F87
:1008E000991F6A95E2F7822788BB089525B381E0B6
:1008F00090E002C0880F991F6A95E2F7822785BBB6
:10090000089522B381E090E002C0880F991F6A9594
:10091000E2F7822782BB08956623C9F0613049F56A
:10092000823461F018F4813431F00895833449F051
:10093000843451F008958FEF8BBB08958FEF88BBFF
:1009400008958FEF85BB08958FEF82BB08958234A1
:1009500059F018F4813431F00895833439F0843437
:1009600039F008951BBA089518BA089515BA089574
:1009700012BA0895CF92DF92EF92FF92BC0180E00D
:1009800090E00E94AF062DED34E246E85DE30E9460
:1009900007066B017C010E94790670933301609316
:1009A0003201609132017091330180E090E00E9449
:1009B000AF069B01AC01C701B6010E949A05609386
:1009C0003401709335018093360190933701209163
:1009D000340130913501409136015091370160E08A
:1009E00070E080E89FE30E949A050E94790680E00B
:1009F000962F909339018093380113BE809138016E
:100A00009091390182BF84E083BF06C008B600FE22
:100A1000FDCF88B7816088BF80913201909133010A
:100A20009C01215031093093330120933201892BED
:100A300069F713BE109233011092320112BEFF907B
:100A4000EF90DF90CF900895CF92DF92EF92FF92D8
:100A5000CF93DF93EC01BC01990F880B990B0E9497
:100A6000B1062FE632E143E851E40E9407060E94F6
:100A700080067093330160933201BE0180E090E004
:100A80000E94AF062FE632E143E851E40E940706D8
:100A90006B017C01609132017091330180E090E044
:100AA0000E94AF069B01AC01C701B6010E949A05E6
:100AB0006093340170933501809336019093370130
:100AC0002091340130913501409136015091370128
:100AD00060E070E080E89FE30E949A050E9479063A
:100AE00080E0962F909339018093380113BE809156
:100AF00038019091390182BF83E083BF06C008B6F8
:100B000000FEFDCF88B7816088BF8091320190914F
:100B100033019C012150310930933301209332017C
:100B2000892B69F712BEDF91CF91FF90EF90DF9094
:100B3000CF9008955058BB27AA270E94B2050C9465
:100B400003070E94F50638F00E94FC0620F039F4F5
:100B50009F3F19F426F40C94F2060EF4E095E7FB9F
:100B60000C94EC06E92F0E94140758F3BA17620799
:100B700073078407950720F079F4A6F50C943607DF
:100B80000EF4E0950B2EBA2FA02D0B01B9019001A8
:100B90000C01CA01A0011124FF27591B99F0593FEC
:100BA00050F4503E68F11A16F040A22F232F342F34
:100BB0004427585FF3CF469537952795A795F04082
:100BC0005395C9F77EF41F16BA0B620B730B840B97
:100BD000BAF09150A1F0FF0FBB1F661F771F881F4F
:100BE000C2F70EC0BA0F621F731F841F48F48795A7
:100BF00077956795B795F7959E3F08F0B0CF939599
:100C0000880F08F09927EE0F9795879508950E9411
:100C10001B060C9403070E94FC0658F00E94F50680
:100C200040F029F45F3F29F00C94EC0651110C942C
:100C300037070C94F2060E94140768F39923B1F366
:100C4000552391F3951B550BBB27AA2762177307F2
:100C5000840738F09F5F5F4F220F331F441FAA1F86
:100C6000A9F335D00E2E3AF0E0E832D09150504042
:100C7000E695001CCAF72BD0FE2F29D0660F771FF0
:100C8000881FBB1F261737074807AB07B0E809F0D6
:100C9000BB0B802DBF01FF2793585F4F3AF09E3F5B
:100CA000510578F00C94EC060C9437075F3FE4F3A1
:100CB000983ED4F3869577956795B795F7959F5F9E
:100CC000C9F7880F911D9695879597F90895E1E0EA
:100CD000660F771F881FBB1F621773078407BA0749
:100CE00020F0621B730B840BBA0BEE1F88F7E095A4
:100CF00008950E9480066894B1110C9437070895F6
:100D00000E941C0788F09F5798F0B92F9927B75178
:100D1000B0F0E1F0660F771F881F991F1AF0BA959F
:100D2000C9F714C0B13091F00E943607B1E00895C0
:100D30000C943607672F782F8827B85F39F0B93FB2
:100D4000CCF3869577956795B395D9F73EF4909552
:100D50008095709561957F4F8F4F9F4F0895E894D0
:100D600009C097FB3EF490958095709561957F4FF3
:100D70008F4F9F4F9923A9F0F92F96E9BB279395A1
:100D8000F695879577956795B795F111F8CFFAF4B1
:100D9000BB0F11F460FF1BC06F5F7F4F8F4F9F4FE2
:100DA00016C0882311F096E911C0772321F09EE840
:100DB000872F762F05C0662371F096E8862F70E0A6
:100DC00060E02AF09A95660F771F881FDAF7880F80
:100DD0009695879597F9089597F99F6780E870E051
:100DE00060E008959FEF80EC089500240A941616A1
:100DF000170618060906089500240A941216130609
:100E0000140605060895092E0394000C11F4882396
:100E100052F0BB0F40F4BF2B11F460FF04C06F5FB2
:100E20007F4F8F4F9F4F089557FD9058440F551F88
:100E300059F05F3F71F04795880F97FB991F61F05C
:100E40009F3F79F087950895121613061406551FD3
:100E5000F2CF4695F1DF08C0161617061806991F3F
:100E6000F1CF86957105610508940895E894BB2734
:0E0E700066277727CB0197F90895F894FFCFF6
:100E7E0002FF0304050600010231323334353637E2
:100E8E0038392A3023FF53657420504153533A00AA
:100E9E0043414C4C494E4720393131202E2E2E00E5
:100EAE005641554C54204F7070656E656400574521
:100EBE004C434F4D45200053455420594F55522019
:100ECE004E455720504153530057656C636F6D6507
:100EDE002100506173733A00436F72726563742020
:100EEE0050617373776F726400312D4F70656E2091
:100EFE007661756C7400322D536574204E657720C3
:100F0E0050617373776F72640050415353574F5251
:100F1E0044004348414E47454420210057726F6EAE
:100F2E00672050617373776F726421002054726969
:0A0F3E006573204C65667420000006
:00000001FF
